:03000000020229D0
:0C022900787FE4F6D8FD758118020270A1
:1003520053746172743A000A476F41686561643A86
:1003620000536C6F77446F77653A0A0053746F706D
:040372003A000A0043
:03000600011600E0
:03000B0002032CC1
:10032C00C0E0C0D0758C00758AFF0518E518700206
:10033C000517D394FFE517947F40067517007518C1
:06034C0000D0D0D0E03229
:0300030002039B5A
:06039B00751601D291323B
:07037600AD82AC8312019E71
:10037D00EF1FAA0670011E4A600BE4FDEDC394FF4A
:05038D0050EE0D80F7A9
:010392002248
:080393008F993099FDC29922F7
:100302008B0F8A108911AB0FAA10A911120173FF6A
:10031200601712039374012511F511E43510F510DD
:0A0322007F057E0012037D80DD22BE
:10000E00E4F580F590F5A0759850758920F5877503
:10001E008BFD758DFDC299D28EF58C758AFFD28CB3
:10002E00D2A9D2AFD2A8D288E51660FCAE17AF180F
:10003E007C007DFF12019EAF05AE041202F7E4F5BF
:10004E0009E509C3940A50E01202B57C007D0F1237
:10005E0001F38C0A8D0B7BFF7A037952120302E5B2
:10006E000B2441FF120393900000AE0AAF0B7C00ED
:10007E007D0A12018CC3E5829FE5839E5027E4F52D
:10008E0008C3E5089582E49583500DB2907E057FF6
:10009E00DC120376050880E9740A2582F582E435C0
:1000AE0083F58380C51202B57C007DFF1201F38CAF
:1000BE000C8D0D7BFF7A037959120302AF0D1203DB
:1000CE0093E4F583F582C3E582950DE583950C5097
:1000DE0013B290AC0CAD0D7E007F9612019E1203F2
:1000EE007DA380E27BFF7A037963120302AE0AAF2F
:1000FE000B7C007D0A12018C8E838F82D3E5829455
:10010E0000E58394004028E4F508C3E5089582E4F1
:10011E009583500DB2907E017FF412037605088010
:10012E00E974F62582F58274FF3583F58380CD124E
:10013E0002B57C007DFF1201F38D0E7BFF7A0379F1
:10014E006E120302AF0E120393C290E50E75F00A03
:10015E00A4FFAEF012037D7BFF7A037974120302C3
:05016E00050902004F2D
:1002350002000EE493A3F8E493A34003F68001F2D1
:1002450008DFF48029E493A3F85407240CC8C333CA
:10025500C4540F4420C8834004F456800146F6DF99
:10026500E4800B0102040810204080900006E47E23
:10027500019360BCA3FF543F30E509541FFEE4938E
:10028500A360010ECF54C025E060A840B8E493A355
:10029500FAE493A3F8E493A3C8C582C8CAC583CA80
:1002A500F0A3C8C582C8CAC583CADFE9DEE780BE38
:0100090000F6
:10017300BB010689828A83E0225002E722BBFE028A
:09018300E32289828A83E49322BD
:10018C00EF8DF0A4A8F0CF8CF0A428CE8DF0A42E87
:02019C00FE2241
:10019E00BC000BBE0029EF8DF084FFADF022E4CC45
:1001AE00F875F008EF2FFFEE33FEEC33FCEE9DEC0E
:1001BE00984005FCEE9DFE0FD5F0E9E4CEFD22ED54
:1001CE00F8F5F0EE8420D21CFEADF075F008EF2F9E
:1001DE00FFED33FD4007985006D5F0F222C398FD8F
:0501EE000FD5F0EA222C
:1001F300C2D5EC30E709B2D5E4C39DFDE49CFCEE27
:1002030030E715B2D5E4C39FFFE49EFE12019EC3FF
:10021300E49DFDE49CFC800312019E30D507C3E4FA
:060223009FFFE49EFE2295
:1002B500AC12AD13AE14AF157810EC4D4E4F700463
:1002C5007CA57DA5C3EC13FCED13FDEE13FEEF132A
:1002D500FF5010EC64CCFCED644CFDEE644EFEEF7B
:1002E50064CEFFD8DF8C128D138E148F15EE547FDC
:0D02F500FE228E128F1374A5F514F515224C
:00000001FF
